:020000040800F2
:100000009006002069250008A9030008AB0300083A
:10001000AD030008AF030008B103000800000000B2
:10002000000000000000000000000000B303000812
:10003000B503000800000000B7030008B90300087A
:1000400083250008832500088325000883250008F0
:1000500083250008832500088325000883250008E0
:1000600083250008832500088325000883250008D0
:1000700083250008832500088325000883250008C0
:1000800083250008832500088325000883250008B0
:1000900083250008832500088325000883250008A0
:1000A0008325000883250008832500088325000890
:1000B0008325000883250008832500088325000880
:1000C0008325000883250008832500088325000870
:1000D00083250008BB03000883250008832500084A
:1000E0008325000883250008832500088325000850
:1000F0008325000883250008832500088325000840
:10010000832500088325000883250008832500082F
:10011000832500088325000883250008832500081F
:10012000832500088325000883250008832500080F
:1001300083250008832500088325000883250008FF
:1001400083250008832500088325000883250008EF
:1001500083250008832500088325000883250008DF
:1001600083250008832500088325000883250008CF
:100170008325000883250008C5030008832500089F
:100180008325000800F002F800F03FF80AA090E88C
:10019000000C82448344AAF10107DA4501D100F042
:1001A00034F8AFF2090EBAE80F0013F0010F18BFD0
:1001B000FB1A43F001031847C0450000E04500006A
:1001C000103A24BF78C878C1FAD8520724BF30C883
:1001D00030C144BF04680C60704700000023002455
:1001E00000250026103A28BF78C1FBD8520728BF47
:1001F00030C148BF0B607047782903F0A18500200B
:1002000070471FB51FBD10B510BD03F0C7FE1146E6
:10021000FFF7F7FF00F008F803F0E5FE03B4FFF77F
:10022000F2FF03BC02F08BF91CB502F025F900F0D7
:1002300089FC4FF4784001F0C1FF2CA003F040FD91
:100240003AA003F03DFD00F016FB50B13BA003F0D7
:1002500037FD01A800F038FB01A800F035FB10B114
:1002600014E03CA0F3E79DF804107F2932D09DF8FC
:100270000500A2282ED09DF8060073282AD09DF8EC
:100280000700762826D039A003F01AFD46F278013F
:10029000112003F0B5FE0021084601F071FF4FF078
:1002A000DA41222008800121364803F08AFB012030
:1002B00002F0A4FE012002F0ACFE8021712000F0CB
:1002C000EFF845F6FF7000F02FFC0021712000F0E0
:1002D000E7F8FEE79DF8060000909DF807309DF8CE
:1002E000052029A003F0ECFCD0E700000D0A0D0A60
:1002F00057656C636F6D6520746F20576176655329
:10030000686172652053544D3332463220736572F2
:10031000696573204D435520426F617264204F70B0
:10032000656E3230375A0D0A000000004F563736DE
:10033000373020496E69742E2E0D0A004F5637361D
:10034000373020496E6974206661696C7321210D14
:100350000A00000043616D65726120486176652086
:10036000496E69742E2E0D0A000000004F56373674
:100370003730204944206973204572726F72210D15
:100380000A000000286402404F56373637302049B3
:10039000443A3078257820307825782030782578D0
:1003A00020307825780D0A007047FEE7FEE7FEE76B
:1003B000FEE7704770477047704740F2255112487A
:1003C00002F0ABBB10B5082002F050FE10B10820BF
:1003D00002F054FE102002F049FE10B1102002F08D
:1003E0004DFE012002F042FE10B1012002F046FE57
:1003F000042002F03BFE002804D0BDE81040042099
:1004000002F03CBE10BD00000048004030B587B08F
:100410000121022002F0D4FC0121880502F0EEFC4B
:100420008E4D04220A21284602F0EAF904220B210B
:10043000284602F0E5F94FF44060049002208DF860
:10044000140001208DF8160000248DF815408DF859
:10045000174004A9284602F05FF9814D284602F0B2
:1004600013FEFE20ADF808002815ADF80A000001C3
:10047000ADF80C00ADF804404BF6FF717948ADF8CB
:10048000061000900121284602F07FFE69462846AA
:1004900002F016FE0121284602F09DFE07B030BD95
:1004A0002DE9F047704D8046894628686C4F012140
:1004B000384602F074FE2C686C4E01E0641E2DD3A9
:1004C0003146384602F034FF0028F7D0002242219E
:1004D000384602F078FE2C68654E01E0641E1DD39C
:1004E0003146384602F024FF0028F7D0414638460E
:1004F00002F0D6FE2C685E4EB61C01E0641E0DD3E1
:100500003146384602F014FF0028F7D049463846F5
:1005100002F0C6FE2C6804E0641E02D2FF20BDE893
:10052000F0873146384602F003FF0028F4D001215D
:10053000384602F03EFE0020F1E72DE9F05F4A4F19
:10054000834689463868464E1436308840F48060C9
:100550003080DFF80C810121404602F020FE3C682B
:10056000424D01E0641E60D32946404602F0E0FEA1
:100570000028F7D000224321404602F024FE3C68C8
:10058000DFF8ECA001E0641E4FD35146404602F074
:10059000CFFE0028F7D05946404602F081FE3C6865
:1005A000DFF8CCA00AF1020A01E0641E3DD35146F7
:1005B000404602F0BDFE0028F7D0308840F480604D
:1005C000308001214446404602F0F3FD01212046DF
:1005D00002F0E5FDB8463F6801E07F1E25D32946BD
:1005E000204602F0A5FE0028F7D00122432127462D
:1005F000204602F0E8FDD8F800404546DFF86C8060
:1006000008F1010801E0641E0FD34146384602F0AC
:100610008FFE0028F7D00021384602F0DCFD2C6860
:10062000124D3F3504E0641E02D2FF20BDE8F09F6A
:100630002946384602F07CFE0028F4D001213846D5
:1006400002F0B7FD384602F02DFE89F80000308830
:1006500040F4806030800020E8E7000000040240A1
:1006600000580040A08601000000002001000300A7
:10067000820007002DE9F04796B00121172002F013
:100680009FFB0121084602F0A5FBCA4F0D22042161
:10069000384602F0B5F80D220621384602F0B0F8CF
:1006A000DFF814830D220621404602F0A9F80D223E
:1006B0000721404602F0A4F8DFF800930D2206213E
:1006C000484602F09DF80D220721484602F098F8AE
:1006D0000D220821484602F093F80D2209214846D0
:1006E00002F08EF8DFF8D8A20D220021504602F069
:1006F00087F80D220121504602F082F80D220421D4
:10070000504602F07DF850200F9002208DF84000F6
:1007100003268DF8416000248DF8424001258DF8B4
:1007200043500FA9384601F0F7FF4FF470700F9057
:100730000FA9484601F0F0FFC0200F900FA94046D6
:1007400001F0EAFF13200F900FA9504601F0E4FFDB
:10075000ADF848408020ADF84A004020ADF84C008C
:10076000ADF84440ADF84640ADF84E40ADF85040CD
:1007700011A802F0F8FB0121082002F058FC7002D9
:1007800001F012FF4E208DF854008DF855508DF871
:1007900056508DF8575015A801F00BFF0121880520
:1007A00002F00EFB874D284603F04AF8380200900D
:1007B000854801908548CDE902044FF4A070CDE949
:1007C0000404A814CDE906404000089040110990A7
:1007D00040020A900420CDE90C640B90694628463B
:1007E0000E9403F0B5F816B0BDE8F0871CB50121F2
:1007F000084602F0E5FA4FF48070009003208DF86F
:10080000050002208DF8040000208DF806008DF808
:1008100007006946674801F07FFF4FF0A0614FF481
:10082000C00002F030FA1CBD1CB50121022002F00C
:10083000C7FA0320009002208DF8050001208DF8F2
:10084000040000218DF806105C4C8DF80700694605
:10085000204601F061FF0121204601F0C4FF022182
:10086000204601F0C0FF0A2000F09BF8022120463C
:1008700001F0B7FF1CBD70B5FFF7C8FDFFF7FAFE2A
:10088000FFF7B4FF40F6FF76304600F08AF880218B
:100890001220FFF705FE60B9304600F082F84C4D9B
:1008A000002405EB4400417815F81400FFF7F8FD2B
:1008B00008B1FF2070BD641CE4B2A82CF1D330460F
:1008C00000F06FF8002070BD38B5044669461C2062
:1008D000FFF733FEB8B99DF80000207069461D206F
:1008E000FFF72BFE78B99DF80000607069460B2079
:1008F000FFF723FE38B99DF80000A07069460A2072
:10090000FFF71BFE08B1FF2038BD9DF80000E07026
:10091000002038BD2DE9FC410E460746851801EB45
:10092000430469460320FFF708FE9DF8000001A973
:1009300000F0C0008DF800003220FFF7FEFD9DF8AA
:10094000040005F0070100F0C0008DF8040040EA43
:10095000C10107F0070001433220FFF7A1FDC7F3F3
:10096000C7011720FFF79CFDC5F3C7011820FFF74B
:1009700097FD9DF8001004F0070041EAC00106F061
:10098000070001430320FFF78BFDC6F3C7011920C1
:10099000FFF786FDC4F3C7011A20FFF781FDBDE80C
:1009A000FC814FF47A7302E01946491EFDD2401EC5
:1009B000FAD27047000002400008024000040240E2
:1009C0000010024028640240280005500000016F1A
:1009D00010400008034A02EB01111022A1F500713A
:1009E00003F0DAB9604100081CB50121582002F07B
:1009F000E7F90121084602F0F7F9F94C0C22002131
:100A0000204601F0FDFE0C220121204601F0F8FEF7
:100A10000C220421204601F0F3FE0C220521204681
:100A200001F0EEFE0C220821204601F0E9FE0C2226
:100A30000921204601F0E4FE0C220A21204601F0A3
:100A4000DFFE0C220E21204601F0DAFE0C220F21DF
:100A5000204601F0D5FE02208DF804004CF23371DF
:100A6000032000918DF8050000218DF806108DF807
:100A700007106946204601F04FFEDA4C0C22022195
:100A8000204601F0BDFE0C220721204601F0B8FEF1
:100A90000C220821204601F0B3FE0C220921204639
:100AA00001F0AEFE0C220A21204601F0A9FE0C2224
:100AB0000B21204601F0A4FE0C221146204601F035
:100AC0009FFE0C220D21204601F09AFE0C220E21E1
:100AD000204601F095FE0C220F21204601F090FEE9
:100AE0004FF6847100916946204601F015FEBE4C18
:100AF0000C220521204601F083FE0C2211462046DF
:100B000001F07EFE0C220D21204601F079FE0C2220
:100B10000E21204601F074FE47F220010091694643
:100B2000204601F0F9FD1CBD002240F2754306E0AD
:100B30000021491C89B29942FBD3521C92B28242D5
:100B4000F6D370472DE9F05FA84CFFF74DFF641E08
:100B5000FDD201F066FC4FF0DA42A549002010807A
:100B6000A44B18884880A0F513474FF4807440F2D6
:100B7000272840F2077540F23F164FF4887B253F47
:100B80007ED0A0F51347283FFAD0A0F51347203FA9
:100B900077D0B0F5134FFBD0A0F5134C4FF401778D
:100BA000BCF1310C6ED0A0F5194C40F20558BCF1E7
:100BB000190C68D0A0F5A85CBCF1050C01D040452B
:100BC0007DD1092008700021072003F019FA322096
:100BD000FFF7AAFF4FF48E71122003F011FA0121E2
:100BE000A42003F00DFA0F21082003F009FA0821D0
:100BF0000A2003F005FA08210D2003F001FA294626
:100C0000302003F0FDF90721312003F0F9F940F21B
:100C10000361322003F0F4F94FF4E06739463320E2
:100C200003F0EEF940F20221342003F0E9F9022149
:100C3000352003F0E5F941F60F71362003F0E0F9B5
:100C40002946372003F0DCF90021382003F0D8F9D9
:100C50000021392003F0D4F929463A2003F0D0F9D5
:100C600000213B2003F0CCF907213C2003F0C8F918
:100C700000213D2003F0C4F93220FFF755FF03E0C7
:100C8000BAE089E2A2E12CE30121072003F0B8F9E0
:100C90000121172003F0B4F93220FFF745FF4FF48C
:100CA000BD51102003F0ACF940F21721112003F0E0
:100CB000A7F94FF48F71122003F0A2F900E096E338
:100CC0004FF47061132003F09BF900212A2003F0F8
:100CD00097F90A21292003F093F94FF49F7112200C
:100CE00003F08EF90021502003F08AF9EF21512002
:100CF00003F086F90021522003F082F93146532097
:100D000003F07EF94FF41C51602003F079F90121C2
:100D1000612003F075F900216A2003F071F90021C8
:100D2000802003F06DF90021812003F069F9002192
:100D3000822003F065F90021832003F061F900218E
:100D4000842003F05DF90021852003F059F9132177
:100D5000902003F055F94FF44071922003F050F9C0
:100D60000521932003F04CF90021952003F048F968
:100D70000021972003F044F90021982003F040F966
:100D80002146012003F03CF93946022003F038F9EE
:100D900041F23001032003F033F90021042003F075
:100DA0002FF900210C2003F02BF900210F2003F074
:100DB00027F90021202003F023F90021212003F04E
:100DC0001FF92121072003F01BF9C820FFF7ACFE13
:100DD0006121072003F014F9C820FFF7A5FEFCE30A
:100DE000000C02400010024000180240FFFF1F00EC
:100DF000040000200000016D012008701021E72090
:100E000003F0FEF80121002003F0FAF8214601204A
:100E100003F0F6F84FF4E061022003F0F1F841F23C
:100E20002801032003F0ECF80021042003F0E8F887
:100E300040F20721082003F0E3F80021092003F025
:100E4000DFF800210A2003F0DBF801210C2003F079
:100E5000D7F800210D2003F0D3F800210F2003F074
:100E6000CFF80021102003F0CBF80721112003F068
:100E7000C7F80021122003F0C3F80021132003F06B
:100E8000BFF83220FFF750FE41F29051102003F0DE
:100E9000B7F84146112003F0B3F83220FFF744FEC3
:100EA0009C21122003F0ACF83220FFF73DFE4FF4F6
:100EB000C851132003F0A4F82321292003F0A0F83F
:100EC0000E212B2003F09CF83220FFF72DFE32205C
:100ED000FFF72AFE0721302003F092F8294631203F
:100EE00003F08EF80621322003F08AF840F20471F4
:100EF000352003F085F841F60471362003F080F8C0
:100F00000421372003F07CF80021382003F078F822
:100F100040F20671392003F073F840F201713C2071
:100F200003F06EF80F213D2003F06AF83220FFF73E
:100F3000FBFD0021502003F063F8EF21512003F066
:100F40005FF80021522003F05BF83146532003F094
:100F500057F84FF42741602003F052F80121612037
:100F600003F04EF800216A2003F04AF800218020A7
:100F700003F046F80021812003F042F8002182208E
:100F800003F03EF80021832003F03AF8002184208A
:100F900003F036F80021852003F032F8102190206C
:100FA00003F02EF84FF4C061922003F029F80321DA
:100FB000932003F025F85946952003F021F80021ED
:100FC000972003F01DF800219820FCE3032008700F
:100FD00041F21401E72003F013F82146012003F049
:100FE0000FF84FF40071022003F00AF841F23001CB
:100FF000032003F005F840F20221082003F000F876
:101000000021092002F0FCFF00210A2002F0F8FF75
:1010100000210C2002F0F4FF00210D2002F0F0FF6F
:1010200000210F2002F0ECFF0021102002F0E8FF69
:101030000721112002F0E4FF0021122002F0E0FF5E
:101040000021132002F0DCFFC820FFF76DFD41F204
:101050009061102002F0D4FF4146112002F0D0FF31
:101060003220FFF761FD0C21122002F0C9FF32206F
:10107000FFF75AFD4FF40061132002F0C1FF112168
:10108000292002F0BDFF0B212B2002F0B9FF3220F6
:10109000FFF74AFD0021202002F0B2FF00212120AD
:1010A00002F0AEFF0021302002F0AAFF4FF483745B
:1010B0002146312002F0A4FF0021322002F0A0FFDF
:1010C0003946352002F09CFF41F20A61362002F0D9
:1010D00097FF2946372002F093FF2146382002F07F
:1010E0008FFF2946392002F08BFF40F202413C205D
:1010F00002F086FF40F60F413D2002F081FF002103
:10110000502002F07DFFEF21512002F079FF0021F5
:10111000522002F075FF3146532002F071FF4FF468
:101120001C51602002F06CFF0121612002F068FF79
:1011300000216A2002F064FF0021802002F060FF9D
:101140000021812002F05CFF0021822002F058FF84
:101150000021832002F054FF0021842002F050FF80
:101160000021852002F04CFF1021902002F048FF62
:101170004FF4C061922002F043FF2121072002F0CA
:101180003FFF3220FFF7D0FC6121072002F038FF3B
:101190003220FFF7C9FCFDE300200870014602F091
:1011A0002FFF2146012002F02BFF4FF4E0610220C7
:1011B00002F026FF41F21801032002F021FF002176
:1011C000042002F01DFF40F20221082002F018FF67
:1011D0000021092002F014FF00210A2002F010FF74
:1011E00001210C2002F00CFF00210D2002F008FF6D
:1011F00000210F2002F004FF6420FFF795FC40F26D
:101200000111072002F0FCFE6420FFF78DFC4FF473
:101210008651102002F0F4FE0721112002F0F0FEAA
:101220005C465946122002F0EBFE4FF43061132069
:1012300002F0E6FE0021292002F0E2FE44F2100155
:101240002B2002F0DDFE0021502002F0D9FEEF211C
:10125000512002F0D5FE0021522002F0D1FE31468D
:10126000532002F0CDFE4FF41C51602002F0C8FE66
:101270000121612002F0C4FE00216A2002F0C0FEBC
:101280000021802002F0BCFE0021812002F0B8FE87
:101290000021822002F0B4FE0021832002F0B0FE83
:1012A0000021842002F0ACFE0021852002F0A8FE7F
:1012B0001021902002F0A4FE0021922002F0A0FE56
:1012C0000121932002F09CFE2146952002F098FE19
:1012D0000021972002F094FE0021982043E307208C
:1012E000EEE30D2008700621282002F089FE01217E
:1012F000002002F085FE0021102002F081FE47F25E
:10130000EF21012002F07CFE4FF4C061022002F0C8
:1013100077FE46F63821032002F072FE46F674018D
:10132000112002F06DFE00210F2002F069FE45F24F
:1013300008310B2002F064FE03210C2002F060FE55
:101340000A210D2002F05CFE4FF438510E2002F00D
:1013500057FEBE211E2002F053FE4FF4004125200F
:1013600002F04EFE4FF4F041262002F049FE7821B3
:10137000272002F045FE00214E2002F041FE002110
:101380004F2002F03DFE40F6D901122002F038FE57
:101390000021302002F034FE4FF48271312002F03F
:1013A0002FFE2146322002F02BFE40F2053421466A
:1013B000332002F025FE4146342002F021FE214672
:1013C000352002F01DFE2946362002F019FE611F6D
:1013D000372002F015FE4FF490513A2002F010FE33
:1013E0004FF400613B2002F00BFE332177E7A0F5BC
:1013F000094C40F2025940F2023ABCF1890C1DD06E
:10140000A0F5094CBCF1990C7ED0A0F5A847083F87
:101410007BD0A0F58A47313F78D0A0F58A47353F89
:1014200075D0472874D0A0F5EE47833F71D0672070
:1014300010801888488047286CD0FDE3052008708C
:101440000121002002F0DCFD3220FFF76DFB4AF69F
:10145000A401032002F0D4FD3220FFF765FB002138
:101460000C2002F0CDFD3220FFF75EFB40F60C01B0
:101470000D2002F0C5FD3220FFF756FB4FF42C5132
:101480000E2002F0BDFD3220FFF74EFBB0211E20E2
:1014900002F0B6FD3220FFF747FB42F63F31012054
:1014A00002F0AEFD3220FFF73FFB4FF4C061022097
:1014B00002F0A6FD3220FFF737FB0021102002F0DA
:1014C0009FFD3220FFF730FB46F27001112002F041
:1014D00097FD3220FFF728FB0021052002F090FD48
:1014E0003220FFF721FB0021062002F089FD322087
:1014F000FFF71AFB4EF61C71162002F081FD322018
:10150000FFF712FB032106E0CEE08EE130E2D8E2E5
:10151000FEE37DE3FDE3172002F072FD3220FFF7CA
:1015200003FB40F23311072002F06AFD3220FFF77F
:10153000FBFA00210B2002F063FD3220FFF7F4FAE2
:1015400000210F2002F05CFD3220FFF7EDFA0021B0
:10155000412002F055FD3220FFF7E6FA002142203B
:1015600002F04EFD3220FFF7DFFA0021482002F0A2
:1015700047FD3220FFF7D8FA3146492002F040FDFE
:101580003220FFF7D1FA00214A2002F039FD322043
:10159000FFF7CAFA00214B2002F032FD3220FFF79C
:1015A000C3FA4FF46F41442002F02AFD3220FFF7C6
:1015B000BBFA0021452002F023FD3220FFF7B4FAE8
:1015C0003146462002F01CFD3220FFF7ADFA2946D5
:1015D000302002F015FD322000E0C6E1FFF7A4FA4A
:1015E0003946312002F00CFD3220FFF79DFA3946D2
:1015F000322002F005FD3220FFF796FA4C464946AC
:10160000332002F0FDFC3220FFF78EFA40F2075142
:10161000342002F0F5FC3220FFF786FA39463520F7
:1016200002F0EEFC3220FFF77FFA3946362002F056
:10163000E7FC3220FFF778FA2146372002F0E0FC81
:101640003220FFF771FA544651463A2002F0D8FC96
:101650003220FFF769FA21463B2002F0D1FC32200C
:10166000FFF762FA0021232002F0CAFC3220FFF7C4
:101670005BFA0021242002F0C3FC3220FFF754FA69
:101680004FF40041252002F0BBFC3220FFF74CFA5A
:1016900000214F2002F0B4FC00214E2002F0B0FCEB
:1016A00046F2680111201BE604200870062128205C
:1016B00002F0A6FC0121002002F0A2FC4AF6A4617F
:1016C000032002F09DFC04210C2002F099FC0C2167
:1016D0000D2002F095FC4FF420510E2002F090FCFA
:1016E000B5211E2002F08CFC43F63F31012002F0B0
:1016F00087FC4FF4C061022002F082FC0021102020
:1017000002F07EFC46F63001112002F079FC002147
:10171000052002F075FC0021062002F071FC4EF657
:101720001C71162002F06CFC3321072002F068FCCB
:1017300000210B2002F064FC00210F2002F060FC6D
:101740000021412002F05CFC0021422002F058FC04
:101750000021482002F054FC3146492002F050FCA0
:1017600000214A2002F04CFC00214B2002F048FCF2
:101770004FF46F41442002F043FC0021452002F069
:101780003FFC3146462002F03BFC00214E2002F097
:1017900037FC00214F2002F033FC2946302002F0B4
:1017A0002FFC40F20221312002F02AFC394632207F
:1017B00002F026FC4C464946332002F021FC40F260
:1017C0000751342000E022E202F01AFC39463520AD
:1017D00002F016FC3946362002F012FC2146372072
:1017E00002F00EFC544651463A2002F009FC214614
:1017F0003B2002F005FC0021232002F001FC002127
:10180000242002F0FDFB4FF40041252002F0F8FBFC
:101810004FF4E041262002F0F3FB4BF2EB012020D5
:1018200002F0EEFB7C2127205AE5082008702146B3
:10183000012002F0E5FB4FF4E061022002F0E0FB42
:1018400041F23001032002F0DBFB0021042002F012
:10185000D7FB40F20721082002F0D2FB002109202B
:1018600002F0CEFB00210A2002F0CAFB00210C206E
:1018700002F0C6FB00210D2002F0C2FB00210F2068
:1018800002F0BEFB3220FFF74FF940F201110720B2
:1018900002F0B6FB3220FFF747F941F2B0611020A9
:1018A00002F0AEFB0121112002F0AAFB012117205A
:1018B00002F0A6FB4FF49C71122002F0A1FB4FF442
:1018C0000061132002F09CFB0921292002F098FB03
:1018D00009212A2002F094FB0021A42002F090FBB1
:1018E0000021502002F08CFBEF21512002F088FBF8
:1018F0000021522002F084FB3146532002F080FB8D
:101900004FF41C51602002F07BFB0321612002F0A8
:1019100077FB00216A2002F073FB0021802002F097
:101920006FFB0021812002F06BFB0021822002F07E
:1019300067FB0021832002F063FB0021842002F07A
:101940005FFB0021852002F05BFB1321902002F059
:1019500057FB0021922002F053FB0321932002F059
:101960004FFB5946952002F04BFB40F27311B6E451
:10197000072008700121002002F042FB4FF4C561EE
:10198000102002F03DFB0621122002F039FB40F648
:10199000322100E0F0E1132002F032FB402111205F
:1019A00002F02EFB5021152002F02AFB16211220F6
:1019B00002F026FB3220FFF7B7F845F260611020F5
:1019C00002F01EFB3220FFF7AFF842F64E21132043
:1019D00002F016FB2146012002F012FB4FF4407189
:1019E000022002F00DFB41F23001032002F008FB5F
:1019F00040F20221082002F003FB00210A2002F03D
:101A0000FFFA0021302002F0FBFA40F202413120BF
:101A100002F0F6FA4FF48371322002F0F1FA4FF43B
:101A2000E061332002F0ECFA4FF48271342002F0CE
:101A3000E7FA40F20131352002F0E2FA2946362079
:101A400002F0DEFA40F20531372002F0D9FA4FF405
:101A50000271382002F0D4FA40F60B71392002F0FE
:101A6000CFFA3220FFF760F80221412002F0C8FAD5
:101A70004FF41C51602002F0C3FA0121612002F0F2
:101A8000BFFA40F21911902002F0BAFA4FF48571B2
:101A9000922002F0B5FA0421932002F0B1FA214617
:101AA000A02002F0ADFA3220FFF73EF840F23311E9
:101AB000072002F0A5FA3220FFF736F80021A02017
:101AC00057E30C2008703021152002F099FA1021FC
:101AD0009A2002F095FA2021112002F091FA43F2A7
:101AE0002841102002F08CFA0221122002F088FA1C
:101AF00041F23801132002F083FA2820FFF714F88E
:101B00001221084602F07CFA2820FFF70DF843F274
:101B10002041102002F074FA43F24501132002F034
:101B20006FFA4620FFF700F80021302002F068FA33
:101B300040F20241312002F063FA40F207313220D4
:101B400002F05EFA4FF44171332002F059FA042199
:101B5000342002F055FA40F20141352002F050FAEB
:101B60002946362002F04CFA40F20531372002F0C7
:101B700047FA4FF4C2652946382002F041FA294657
:101B8000392002F03DFA2146012002F039FA4FF4E3
:101B90004071022002F034FA41F23001032002F0D9
:101BA0002FFA40F60801082002F02AFA08210A203C
:101BB00002F026FA4FF41C51602002F021FA0121B4
:101BC000612002F01DFA4FF49F71902002F018FA84
:101BD0002146922002F014FA2146932002F010FAD6
:101BE0004FF44051A02002F00BFA1021A32002F084
:101BF00007FA0121072002F003FA2121072002F051
:101C0000FFF92321072002F0FBF933210720B1E07F
:101C1000062008700121FF2002F0F2F90821F320CC
:101C200002F0EEF92146012002F0EAF94FF4E061FA
:101C3000022002F0E5F900E09DE241F230010320CC
:101C400002F0DEF95146082002F0DAF940F20721ED
:101C5000082002F0D5F90021092002F0D1F9002175
:101C60000A2002F0CDF90021102002F0C9F9052167
:101C7000112002F0C5F90021122002F0C1F9002163
:101C8000132002F0BDF93220FEF74EFF41F2B021E1
:101C9000102002F0B5F93220FEF746FF072111208F
:101CA00002F0AEF93220FEF73FFF8B21122002F046
:101CB000A7F93220FEF738FF4FF4B851132002F095
:101CC0009FF93220FEF730FF2221292002F098F9F7
:101CD0000021302002F094F92946312002F090F9D9
:101CE0004146322002F08CF940F20711352002F013
:101CF00087F90821362002F083F90021372002F00D
:101D00007FF940F202242146382002F079F901E0FF
:101D100035E014E14FF48371392002F071F9214666
:101D20003C2002F06DF94FF481613D2002F068F92A
:101D30003220FEF7F9FE0021502002F061F9EF2178
:101D4000512002F05DF90021522002F059F931468C
:101D5000532002F055F94FF42741602002F050F96A
:101D60000121612002F04CF93321902002F048F962
:101D70000B212B2002F044F940F23311F7E50A2041
:101D800008700021EA2002F03BF92021EB2002F04C
:101D900037F90C21EC2002F033F9C421ED2002F0D8
:101DA0002FF94021E82002F02BF93821E92002F038
:101DB00027F90121F12002F023F91021F22002F08D
:101DC0001FF9A321272002F01BF90121402002F076
:101DD00017F90021412002F013F90021422002F0FE
:101DE0000FF91021432002F00BF90E21442002F0DC
:101DF00007F92421452002F003F90421462002F0CE
:101E0000FFF85021472002F0FBF80221482002F0A1
:101E1000F7F81321492002F0F3F819214A2002F0C3
:101E2000EFF819214B2002F0EBF816214C2002F0BC
:101E3000E7F81B21502002F0E3F83121512002F095
:101E4000DFF82F21522002F0DBF83F21532002F06F
:101E5000D7F83F21542002F0D3F83E21552002F05C
:101E6000CFF82F21562002F0CBF87B21572002F02B
:101E7000C7F80921582002F0C3F80621592002F0C2
:101E8000BFF806215A2002F0BBF80C215B2002F0BB
:101E9000B7F81D215C2002F0B3F8CC215D2002F0E0
:101EA000AFF818211B2002F0ABF801211A2002F034
:101EB000A7F81521242002F0A3F85021252002F0D4
:101EC0009FF88B21232002F09BF83621182002F086
:101ED00097F80121192002F093F80021012002F067
:101EE0008FF888211F2002F08BF83220FEF71CFEAD
:101EF00080211F2002F084F83220FEF715FE902189
:101F00001F2002F07DF83220FEF70EFED0211F20A8
:101F100002F076F83220FEF707FE0521172002F0C6
:101F20006FF80021362002F06BF83821282002F0EB
:101F300067F83220FEF7F8FD3C21282019E10B203C
:101F400008700821422002F05BF8B421462002F01C
:101F500057F84321472002F053F81321482002F09C
:101F60004FF84721492002F04BF814214A2002F093
:101F700047F836214B2002F043F803214C2002F0B1
:101F80003FF846214D2002F03BF805214E2002F09B
:101F900037F810214F2002F033F80821502002F0CA
:101FA0002FF80A21512002F02BF80021022002F024
:101FB00027F80021032002F023F80021042002F07A
:101FC0001FF8EF21052002F01BF80021062002F087
:101FD00017F80021072002F013F80121082002F071
:101FE0000FF83F21092002F00BF80A20FEF79CFDB4
:101FF0000621012002F004F8C821162002F000F8A2
:102000009521232001F0FCFF9521242001F0F8FF09
:10201000FF21252001F0F4FF0221272001F0F0FF2D
:102020000221282001F0ECFF0221292001F0E8FF25
:1020300002212A2001F0E4FF02212C2001F0E0FF20
:1020400002212D2001F0DCFF01213A2001F0D8FF10
:1020500001213B2001F0D4FFF0213C2001F0D0FF12
:1020600000213D2001F0CCFF1420FEF75DFD38215A
:10207000352001F0C5FF7821362001F0C1FF38215D
:102080003E2001F0BDFF0F21402001F0B9FFF021FB
:10209000412001F0B5FF0021382001F0B1FF4921B6
:1020A000192001F0ADFF0A21932001F0A9FF0A20B9
:1020B000FEF73AFD2021084601F0A2FF03211D2072
:1020C00001F09EFF00211E2001F09AFF09211F2030
:1020D00001F096FF5321442001F092FF102145208A
:1020E00001F08EFF0A20FEF71FFD04211C2001F0E5
:1020F00087FF1420FEF718FD8021432001F080FFA8
:102100000520FEF711FD0A211B2001F079FF282090
:10211000FEF70AFD12211B2001F072FF2820FEF7B6
:1021200003FD7F21902001F06BFF0421262001F0A8
:1021300067FF2820FEF7F8FC2421262001F060FF2D
:102140002C21262001F05CFF2820FEF7EDFC082161
:10215000702001F055FF3C21262001F051FF0221A3
:10216000572001F04DFF0021552001F049FF0021CB
:10217000572001F045FFBDE8F05F3220FEF7D4BCE8
:1021800010B50446C1F1EF0081B2B94800780528C6
:102190000BD0202001F034FF2146212001F030FF38
:1021A0004FF0DA412220088010BD4E2001F028FFB8
:1021B0002146BDE810404F2001F022BF70B5054612
:1021C000AB48002400780A2811D00B280FD000213A
:1021D0000846FFF7D5FF4FF0DA4122200880A548D6
:1021E0004FF496310580641C8C42FBD370BD0021F6
:1021F000022001F005FF0021032001F001FF002172
:10220000042001F0FDFEEF21052001F0F9FE002180
:10221000062001F0F5FE0021072001F0F1FE01216A
:10222000082001F0EDFE3F21092001F0E9FED2E790
:1022300010B5FFF7A5FF4FF0DA41222008808C4847
:1022400001788C48091F092917D2DFE801F005053C
:1022500005051616080805000188008810BD0188CC
:10226000C1F3C70201880088C908C0F38700C9020A
:1022700041EA4010104380B210BD01880088C0F3CD
:102280004511C20AC00200EB41101044F3E710B53B
:102290001446B0F5A07F09D2F02907D2FFF770FFEE
:1022A0002146BDE81040222001F0AABE10BD2DE954
:1022B000F04705469146DDF820A098460C461046AA
:1022C0004D4501D9A94685B21846444501D98846ED
:1022D00084B2A9EB0500A8EB040100B20EB250B124
:1022E000A6B1B04230DDC0EB46010FB271004042F2
:1022F00001EB400825E0524621462846FFF7C7FF7C
:10230000641CA4B2A045F6D2BDE8F087524621462F
:102310002846FFF7BCFF6D1CADB2A945F6D2F3E726
:10232000524621462846FFF7B2FF6D1CADB2002F82
:1023300004DD641CA4B208EB070001E007EB4600D3
:1023400007B24D45ECD11AE0C6EB40010FB2710067
:10235000404201EB400910E0524621462846FFF773
:1023600096FF641CA4B2002F04DD6D1CADB209EB16
:10237000070001E007EB460007B24445ECD15246A6
:1023800021462846BDE8F04781E72DE9FF5F8946F1
:1023900007469B4611466846FEF71CFB0025EA46A9
:1023A00000241AF8058009EB0506C4F1070128FA94
:1023B00001F0C00707EB0400B1B280B201D05A4669
:1023C00000E00E9AFFF763FF641CA4B2082CECD364
:1023D0006D1CADB2102DE3D3BDE8FF9F2DE9F8438E
:1023E0009946089F16460D4604464FF49C7816F809
:1023F000012B4B46294620460097FFF7C6FF444570
:1024000002D20834A4B207E0E02D4FF0000402D25B
:102410001035ADB200E0002530780028E7D1BDE8E6
:10242000F88300B597B00620009000201021CDE978
:102430000201049009020190CDE90801069007907D
:102440000A900FA905900F220B90CDE90C01CDE960
:102450000F20CDE911201390149015900E9168462D
:1024600000F0C3FF0121062001F054F817B000BDB1
:10247000040000200000016D70B586B0012102202B
:1024800000F09EFC0121022000F09AFC012188044A
:1024900000F0B4FC324E07220A21304600F0B0F9B9
:1024A00007220B21304600F0ABF9301500900220D6
:1024B0008DF8040000248DF806408DF805000125F4
:1024C0008DF807506946304600F026F9E802009082
:1024D0008DF806508DF807406946304600F01CF92B
:1024E0004FF4E130ADF80C400290ADF80E40ADF87D
:1024F0001040ADF814400C201A4CADF8120002A99F
:10250000204600F0D8F9012240F22551204600F083
:10251000E2FA0121204600F03FFA06B070BD08B58E
:1025200027208DF8000000208DF801008DF80200B2
:1025300001208DF80300684600F03BF808BD7047A5
:1025400070B5084D0446C1B2284600F04BFA402150
:10255000284600F0D8FA0028F9D0204670BD0000C7
:1025600000040240004800400948804709480047ED
:10257000FEE7FEE7FEE7FEE7FEE7FEE7FEE7FEE733
:10258000FEE7FEE704480549054A064B7047000090
:10259000613B0008850100089000002090060020A3
:1025A0009002002090020020284908432849086032
:1025B000704730B50F23C27801780125FAB1244A5B
:1025C000126801F1E02102F4E062C2F5E062C2F3B8
:1025D0000722C2F10404D3404278A24084781C4010
:1025E0001443220181F80024007800F01F018D407F
:1025F0004009800000F1E020C0F8005130BD01F03A
:102600001F0085404809800000F1E020C0F880519B
:1026100030BD104A114001430D48001F0160704752
:102620000B4A121D0029116801D0014300E08143CB
:10263000116070474FF0E0210428086903D020F0B2
:1026400004000861704740F00400FAE70000FA0552
:102650000CED00E080FFFF1F714910B5884206D1E4
:102660000121084600F0DEFB002101204FE06D490A
:10267000884206D10121022000F0D4FB0021022073
:1026800045E06949884206D10121042000F0CAFBD7
:10269000002104203BE06549884206D10121082041
:1026A00000F0C0FB0021082031E06149884206D1DA
:1026B0000121102000F0B6FB0021102027E05D4929
:1026C000884206D10121202000F0ACFB002120200F
:1026D0001DE05949884206D10121402000F0A2FBAB
:1026E0000021402013E05549884206D10121802075
:1026F00000F098FB0021802009E0514988420AD16E
:1027000084150121204600F08DFB00212046BDE804
:10271000104000F087BB10BDF0B5002201274FF03C
:10272000030C0B6807FA02F52B40AB422CD106686C
:1027300053000CFA03F4A64306600E79D0F800E0CB
:102740009E4046EA0E0606600E79012E01D0022E4A
:1027500012D18668A64386604E79D0F808E09E4084
:1027600046EA0E0686604668AE43466045688E7946
:102770009640B6B235434560C568A543C560CC797F
:102780009C40C3681C43C460521C102AC9D3F0BDCE
:102790004FF6FF7101600021017141718171C171BA
:1027A000704708B541F480320092C261C16100995E
:1027B000C161C169C069009008BD0246002012696C
:1027C0000A4200D001207047006980B2704702467B
:1027D000002052690A4200D001207047406980B24F
:1027E000704701837047418370470AB10183704786
:1027F000418370474161704742694A404261704776
:102800004B07DB0E9A40C90810B500EB8100016A46
:102810000F249C40A1430162016A1143016210BD73
:10282000000002400004024000080240000C024088
:10283000001002400014024000180240001C024038
:1028400000200240C74910B5884206D1012110205E
:1028500000F010FB0021102028E0C349884202D17B
:1028600001214C0410E0C149884202D101218C04AD
:102870000AE0BF49884202D10121CC0404E0BD49ED
:1028800088420AD101210C05204600F0E9FA2046D1
:10289000BDE81040002100F0E3BAB749884209D1F1
:1028A0000121202000F0E6FA00212020BDE81040A0
:1028B00000F0E0BA10BD7FB50446008A0D46C98815
:1028C00020F4405001432182A08941F20C618843E9
:1028D000A9882A8911436A8902431143A181A08AE8
:1028E00020F44071A8890843A082684600F004FAE9
:1028F0009C48844202D0A048844201D1039800E061
:102900000298A189090400EBC00101EB00102968BD
:1029100001D5490000E08900B0FBF1F06422B0FB72
:10292000F2F109010B096FF018056B4300EB83000E
:10293000A3891D044FF0320306D503EBC000B0FBA2
:10294000F2F000F0070005E003EB0010B0FBF2F03E
:1029500000F00F00084320817FBD4FF41651016045
:1029600000218180C18001810C22428181817047D8
:1029700010B5028A4C8822F470630A8822438C883E
:10298000C9880C4322431A43028210BD00210180F2
:1029900041808180C18070470029818902D041F443
:1029A000005101E021F4005181817047028B02F453
:1029B0007F420283028B0A43028370470029818988
:1029C00002D041F4004101E0C1F30E018181704762
:1029D0000029818A02D041F4006101E021F4006104
:1029E00081827047C1F30801818070478088C0F3FD
:1029F00008007047028A22F00F020282028A0A430C
:102A0000028270470029818902D041F0020101E071
:102A100021F0020181817047828922F40062828163
:102A200082890A4382817047028A22F02002028250
:102A3000028A0A43028270470029018A02D041F4C7
:102A4000804101E021F4804101827047818941F099
:102A50000101818170470029818A02D041F008017B
:102A600001E021F0080181827047028BD2B202831B
:102A7000028B42EA0121018370470029818A02D03A
:102A800041F0200101E021F02001818270470029FE
:102A9000818A02D041F0100101E021F01001818211
:102AA0007047828A22F004028282828A0A438282EA
:102AB00070470029818A02D041F0020101E021F033
:102AC000020181827047002A828A01D00A4300E015
:102AD0008A438282704710B5C1F3421301F01F048C
:102AE0000121A140012B07D0022B07D01430002A6E
:102AF000026805D00A4304E00C30F8E71030F6E72E
:102B00008A43026010BD0246002012880A4200D0AB
:102B100001207047C9430180704770B501F01F055F
:102B200001260024C1F3421306FA05F2012B0FD04F
:102B3000022B0FD0838A4FEA11210088134206FA34
:102B400001F600EA060001D000B10124204670BD64
:102B50008389F0E7038AEEE70A0A01219140C9431D
:102B600001807047001001400044004000480040D0
:102B7000004C00400050004000140140EA48016849
:102B800041F001010160E84A002108321160026849
:102B9000E64B1A400260031DE54A1A60026822F4FF
:102BA00080220260E0480C3001607047DE4900225C
:102BB000891C0A70087070470246002051090129DB
:102BC0000CD002290CD0D8497431096802F01F02D8
:102BD000012393400B4200D001207047D249F4E713
:102BE000D1497031F1E718B500204FF4A06400908E
:102BF0003120FFF7E1FF0099491C0091A14201D06B
:102C00000028F5D03120FFF7D7FF002800D00120A1
:102C100018BDC54A116821F0F80141EAC0001060F2
:102C20007047C44908607047BF49002270310A707C
:102C30000A70012802D0042801D1052008707047CD
:102C4000BD490860704741EA82115A0810B5BB4B74
:102C5000029C03EB02421143014341EA0460B24982
:102C6000091D086010BDB34908667047800140EA3D
:102C70000170AD49843108607047AE49886670477D
:102C8000AC49C8647047A84B08331A68084322F05F
:102C9000EC62104318607047A34B08331A6808436E
:102CA00022F078421043186070479F4A083211683A
:102CB00021F003010143116070479B480830006810
:102CC00000F00C007047984A0832116821F0F001BA
:102CD000014311607047944A0832116821F4E051B1
:102CE000014311607047904A0832116821F4604135
:102CF00041EAC0001060704770B58B4B083319680B
:102D00008F4C11F00C0104D08E4E042903D00829F9
:102D100003D004601BE0066019E0834A121D1168AD
:102D2000C1F38055116801F03F0115B1B6FBF1F117
:102D300001E0B4FBF1F114681268C4F38814614334
:102D4000C2F30142521C5200B1FBF2F1016019685A
:102D50000F2202EA11117C4A545C0168E140416093
:102D60001C68072505EA9424145D21FA04F48460A4
:102D70001B6805EA5333D25CD140C16070BDC0F31B
:102D80000121032908D1684B083319686F4A21F4DF
:102D9000F81102400A431A60634970310A68C0F3AF
:102DA0000B0002430A60704763494439086070476A
:102DB00061494039086070475E49C1F85C0170475D
:102DC000594A30320029116801D0014300E08143A3
:102DD00011607047544A34320029116801D0014310
:102DE00000E08143116070474F4A38320029116872
:102DF00001D0014300E08143116070474A4A4032EC
:102E00000029116801D0014300E08143116070473F
:102E1000454A44320029116801D0014300E0814352
:102E200011607047404A10320029116801D00143F7
:102E300000E08143116070473B4A14320029116859
:102E400001D0014300E0814311607047364A1832D7
:102E50000029116801D0014300E0814311607047EF
:102E6000314A20320029116801D0014300E081433A
:102E7000116070472C4A24320029116801D00143A7
:102E800000E0814311607047274A503200291168E1
:102E900001D0014300E0814311607047224A54325F
:102EA0000029116801D0014300E08143116070479F
:102EB0001D4A58320029116801D0014300E08143C6
:102EC00011607047184A60320029116801D001432F
:102ED00000E0814311607047134A64320029116891
:102EE00001D0014300E08143116070470E4A0D326A
:102EF0000029117801D0014300E08143117070472F
:102F000009487430016841F08071016070470146E2
:102F1000054A00200C3212680A4200D00120704796
:102F200001490E310870704700380240FFFFF6FE7D
:102F30001030002400004742800E47420000FFFF8F
:102F40000024F40040787D010C000020FFFCFF0FFE
:102F50004C4800210160C1601F2242618161C16152
:102F600001624162704730B546490A6844F2010384
:102F70009A430A600A6840F6F2739A4303884488C9
:102F8000C588234384882C432343048923434489ED
:102F900080892343034313430B6030BD002101802C
:102FA00041808180C18001814181818170470168B8
:102FB0004FEA314233490A6240684FEA3040486282
:102FC000704730490028086802D040F0040001E052
:102FD00020F0040008607047C178006861F31F604A
:102FE00028498861704727490028086802D040F0C6
:102FF000080001E020F0080008607047214900281F
:10300000086802D040F4804001E020F4804008606D
:1030100070471C490028086802D040F0010001E018
:1030200020F00100086070471648806A7047154A12
:103030000029D16801D0014302E0C04380B20140C1
:10304000D160704703460020190B0E4A012906D0B3
:10305000022906D01169194200D0012070479168F9
:10306000F9E75168F7E707494861704705490246A3
:1030700000200969114200D00120704701494861D0
:103080007047000000000550C94910B5884202D1C0
:1030900001214C050AE0C749884202D101218C0573
:1030A00004E0C54988420AD10121CC052046FFF73A
:1030B000D7FE2046BDE810400021FFF7D1BE10BD6D
:1030C0007FB5044680880D4620F03F066846FFF72E
:1030D00013FEBA490298B0FBF1F189B20E43A68003
:1030E000228822F001022280B54B2A689A421BD81E
:1030F0005200B0FBF2F080B2042800D20420491C38
:103100002184A083208840F00100208020884FF691
:10311000F5310840A9886A89114301432180A889B3
:103120002989084320817FBDEB88A3F53F46FF3EF8
:103130000BD002EBC20303EB0212B0FBF2F080B241
:1031400040F48040020506D007E002EB4202B0FBEB
:10315000F2F080B2F6E740F001004FF4967251436E
:103160004FF47A72B1FBF2F140F40040C7E741F24C
:1031700088310160002181804BF6FF72C28001819D
:1031800041814FF48041818170470029018802D03C
:1031900041F0010101E021F00101018070470029A7
:1031A000018802D041F4807101E021F48071018036
:1031B00070470029018802D041F4007101E021F438
:1031C00000710180704712B141F0010101E001F08E
:1031D000FE01018270470029018802D041F480611C
:1031E00001E021F4806101807047828901F0FE01D5
:1031F00022F0FE021143818170470029818902D0AB
:1032000041F0010101E021F00101818170470029B5
:10321000018802D041F0400101E021F0400101802D
:1032200070470029018802D041F4004101E0C1F358
:103230000E01018070470029018803D021F0800130
:103240000180704741F08001FAE7B1F5804F818B32
:1032500002D021F4804101E041F480418183704734
:10326000B1F5006F018803D021F40061018070473F
:1032700041F40061FAE7B1F5005F018803D021F461
:1032800000510180704741F40051FAE7002901889C
:1032900002D041F0100101E021F0100101807047DF
:1032A00001827047008AC0B270470029018802D0AD
:1032B00041F4805101E021F4805101807047B1F563
:1032C000006F018803D021F400610180704741F450
:1032D0000061FAE70029018802D041F0200101E0F5
:1032E00021F0200101807047008B000A70470029FF
:1032F000818802D041F4006101E021F40061818005
:1033000070470029818802D041F4805101E021F406
:1033100080518180704708B508440090008808BD3E
:10332000002A828801D00A4300E08A4382807047E5
:10333000034600209A8A1B8B42EA034222F07F4216
:10334000914300D101207047818A008B41EA0041FE
:1033500021F07F4070470CB50246002000920A0F12
:1033600021F07F41019202D0009A143202E0009ACB
:10337000090C1832009212680A4200D001200CBDDC
:10338000C9438182704710B5034600209A884FF4E4
:10339000E06404EA11449B8A224021F07F410B4201
:1033A00002D0002A00D0012010BDC943818270479D
:1033B0000054004000580040005C004040420F00B4
:1033C000A08601008100A1F1C04140B143F2D200CA
:1033D00008606FF070404860C1F8040170474FF01A
:1033E000204243F2DB001060F3E710B5D0E9011290
:1033F0001143D0E903231A431143426911438269FF
:103400001143C2691143026A1143426A1143826A3D
:103410001143C26A1143026B114302689200A2F188
:10342000C04211608168082907D101688900A1F1B3
:10343000C0410A6842F040020A60416BD1E90023B2
:1034400042EA03128B688C891B0243EA04431A4345
:103450000B8A42EA03520B7D896942EA03620A43FE
:1034600001688900A1F1C0414A60C16AB1F5804F8D
:1034700008D000686FF070418000A0F1C040C0F833
:10348000041110BD816BD1E9002342EA03128B685D
:103490000C8A1B0243EA04531A430B7D896942EAF2
:1034A000036200680A438000A0F1C040C0F8042114
:1034B00010BD10B500210222C0E900128160C16078
:1034C000016141618161D202C161C0E9081252000B
:1034D000C0E90A210163436B0F221A60436B5A60F3
:1034E000446BFF23A360446BE260446B2261446B36
:1034F0006261446BA161846B2260846B6260846B47
:10350000A360836BDA60836B1A61836B5A61806B93
:10351000816110BD8000A0F1C0400029016802D087
:1035200041F0010101E0C54A11400160704710B54A
:10353000182340244FF020414FF0FC32102805D0D2
:1035400041F8803F4C608A60CA6010BD0B664C66D3
:103550008A66CA6610BD30B5D0E901121143D0E9C0
:1035600003231A431143426941EA4221826941EA35
:10357000423141F00804C169D1E9002342EA032243
:103580000B89097B1B0443EA01610A43016AD1E903
:10359000003543EA05230D89097B2D0445EA0161C5
:1035A0000B4301684FF02040102904D040F8804FB1
:1035B0008260C36030BD04668266C36630BD102180
:1035C0000160002141608160C160016141618161F0
:1035D000C269FC211160C2695160C2699160C2690F
:1035E000D160026A1160026A5160026A9160006AE9
:1035F000C16070474FF0204251B1102804D052F8FA
:10360000800F40F004000AE0106E40F004000AE071
:103610008A49C91E102804D052F8800F0840106053
:103620007047106E0840106670474FF0204251B14D
:10363000102804D052F8800F40F040000AE0106ECD
:1036400040F040000AE07D493F39102804D052F88C
:10365000800F084010607047106E08401066704779
:103660004FF02041102802D0D1F894007047486FE5
:1036700070474FF02040182140F8A01F0021416002
:103680004FF0FC318160C1600161704710B5D0E935
:10369000001241EA42218268102343EA4232114378
:1036A0004FF0204242F8A01FC168D1E9003443EA3C
:1036B00004230C89097B240444EA01610B439360D1
:1036C0000169D1E9003443EA04230C89097B24040D
:1036D00044EA01610B43D3604069D0E9001341EA39
:1036E00003210389007B1B0443EA0060014311614D
:1036F00010BD0021016041608160C268FC21116041
:10370000C2685160C2689160C268D160026911608C
:1037100002695160026991600269D1604269116079
:1037200042695160426991604069C16070474FF0E1
:103730002041002851F8A00F02D040F0040002E020
:103740003E4AD21E10400860704710B54FF4807496
:103750004FF0204372B1102804D0A04205D153F895
:10376000840F04E0586E08430DE053F8A40F08439B
:10377000186010BD102804D0A04206D153F8840F61
:1037800005E0586E8843586610BD53F8A40F88436F
:10379000EEE7034600204FF02042102B08D0B3F58F
:1037A000807F07D0D2F8A4200A4200D001207047C1
:1037B000526EF9E7D2F88420F6E74FF02042102845
:1037C00007D0B0F5807F08D052F8A40F884310606E
:1037D0007047506E88435066704752F8840FF5E783
:1037E000034600204FF02042102B0CD0B3F5807F11
:1037F0000BD0D2F8A4200A4202EAD10102D000295B
:1038000000D001207047526EF5E7D2F88420F2E72D
:103810004FF02042102808D0B0F5807F0AD052F82F
:10382000A40F20EAD10010607047506E20EAD1004A
:103830005066704752F8840FF3E70000FEFF0F0058
:103840002DE9F043016821F00101016000210160D0
:1038500041608160C160016121214161B849B84A7C
:103860003D251039904202D18D60BDE8F083B44A05
:103870004FF474661832904201D18E60F5E7B04A79
:103880004FF474173032904201D18F60EDE7AC4AAB
:103890004FF0746C4832904202D1C1F808C0E4E79E
:1038A000A74BA84A6033984201D1CA60DDE7A44C17
:1038B000A54B7834A04201D1CB60D6E7DFF88082F7
:1038C000A24C08F19008404501D1CC60CDE7DFF86B
:1038D00070824FF03D5908F1A808404502D1C1F867
:1038E0000C90C2E79A49DFF868820839404501D157
:1038F0000D60BAE7964D1835A84201D10E60B4E7C5
:10390000934D3035A84201D10F60AEE7904D483558
:10391000A84202D1C1F800C0A7E78D4D8C4960359F
:10392000091FA84201D10A609FE7894A7832904274
:1039300001D10B6099E7864A9032904201D10C6028
:1039400093E7834AA83290428FD1C1F800908CE768
:1039500030B503687F4ACC6813400A682243D1E936
:1039600005452C432243CC6922430C6A22434C6A0E
:1039700022438C6A22434C6B22438C6B22431A43B2
:103980000260426922F00703D1E90B2422431A4363
:1039900042610A6942604A6882608968C16030BDDC
:1039A0000021016041608160C1600161416181610C
:1039B000C161016241628162C162016341638163ED
:1039C00070470029016802D041F0010101E021F0B7
:1039D0000101016070470029016802D041F40041F3
:1039E00001E021F40041016070470029016802D024
:1039F00041F0200101E021F02001016070474160A9
:103A00007047406880B27047002A026802D042F4D2
:103A1000002201E022F400220260016170470029C7
:103A2000016802D041F4802101E021F4802101608D
:103A300070470AB101617047C160704701460020BC
:103A40000968090300D50120704701460020096874
:103A5000C90700D001207047406900F03800704766
:103A600002463B4B00209A4202D2354A103A01E00E
:103A7000374A103A8B0001D5526800E01268364B85
:103A80001A400A4200D001207047314A904202D2C7
:103A90002B48103801E02E4810382F4A8B0001EADD
:103AA000020101D5C1607047816070470B0607D5E0
:103AB000436912B143F0800301E023F080034361C6
:103AC000802908D0002A026801F01E0101D00A43B3
:103AD00000E08A430260704730B51D4A00249042DE
:103AE00002D2174A103A01E0194A103A1B4B194208
:103AF00005D01E2303EAD12503682B4002E040696C
:103B000000F08003880001D5506800E01068124A78
:103B10001040084201D003B10124204630BD0C4AB8
:103B2000904202D20648103801E0094810380A4A8B
:103B30008B0001EA020101D5C160704781607047C6
:103B4000106002403D000020400F002000003D209A
:103B5000106402403F801CF07D0F7D0F3C0F3C0F36
:103B60004D4810B5016841F0010101604A4A002149
:103B7000083211600268494B1A400260031D484A2E
:103B80001A60026822F48022026043480C3001600F
:103B900000F03BF843494FF00060086010BD70B57D
:103BA0003D4D08352868404B404910F00C0004D0CA
:103BB0003F4E042803D0082803D00B601BE00E60A2
:103BC00019E0354A121D1068C0F38054106800F0E7
:103BD0003F0014B1B6FBF0F001E0B3FBF0F0136866
:103BE0001268C3F388135843C2F30142521C5200B7
:103BF000B0FBF2F0086028682C4AC0F30310121DD5
:103C0000105C0A68C2400A6070BD0CB500222249EF
:103C100000920192086840F4803008604FF4A0637D
:103C2000086800F4003001900098401C0090019852
:103C300010B900989842F3D10868800329D5012073
:103C400001901548083002680260026842F40042A0
:103C50000260026842F4A0520260021F154B13601A
:103C60000A6842F080720A600A689201FCD5124A22
:103C700040F203711160016821F0030101600168E5
:103C800041F0020101600168C1F381010229FAD10A
:103C90000CBD01920CBD000000380240FFFFF6FE93
:103CA0001030002408ED00E00024F4001C00002087
:103CB00040787D01193C4005003C024070470000FF
:103CC0000FB4044910B503AA029800F007F910BC1C
:103CD0005DF814FB080000202DE9F0410E46044673
:103CE000002020622046E168884730B3252805D0AF
:103CF000D4E901219047206A401CF2E7E1682046A0
:103D000000278847050018D0A5F14100192802D8DE
:103D100020354FF400673246294620462760FCF7DD
:103D20006BFA40B1012804D0F61D26F007060836CC
:103D3000D8E7361DD6E72846DAE7206ABDE8F081E5
:103D400070B504460D4621461068AFF30080218807
:103D5000090502D50F4A7A4402E00E4A7A440E322F
:103D6000002104F1240305E000F00F060009965D30
:103D70005E54491C0028F7D120780023000704D5A1
:103D8000702D02D009B1022311322046BDE87040E7
:103D900000F04BB8F6090000032A40F2308010F022
:103DA000030C00F0158011F8013BBCF1020F6244D6
:103DB00098BF11F801CB00F8013B38BF11F8013B67
:103DC000A2F1040298BF00F801CB38BF00F8013B14
:103DD00011F0030300F09480083AC0F0088051F815
:103DE000043B083A51F804CBA0E80810F5E7121D8F
:103DF0005CBF51F8043B40F8043BAFF30080D207AE
:103E000024BF11F8013B11F801CB48BF11F8012B79
:103E100024BF00F8013B00F801CB48BF00F8012B9C
:103E2000704770477047704770472DE9F0470D465F
:103E300099469246044600F124080168880604D594
:103E4000E06921F01001216000E00120A84201DDBD
:103E5000471B00E00027A1697A1902EB0900081A44
:103E6000A0612078C00602D42046AFF3008000266F
:103E700008E0D4E901211AF806009047206A401CA6
:103E8000761C20624E45F4DB2078C0060AD5204619
:103E9000AFF3008006E0D4E9012130209047206A8A
:103EA000401C2062381EA7F10107F4DC07E0D4E9CA
:103EB000012118F805009047206A401C2062281E46
:103EC000A5F10105F3DC2046AFF300802078000661
:103ED00002D50220BDE8F0870120FBE7074B70B553
:103EE0000D467B4400F043F80446284600F052F8A3
:103EF00010B14FF0FF3070BD204670BD5BE6FFFF94
:103F000010B5203AC0F00B80B1E81850203AA0E874
:103F10001850B1E81850A0E81850BFF4F5AF5FEAA8
:103F2000027C24BFB1E81850A0E8185044BF18C95B
:103F300018C0BDE810405FEA827C24BF51F8043B02
:103F400040F8043B08BF7047D20728BF31F8023B56
:103F500048BF11F8012B28BF20F8023B48BF00F8EA
:103F6000012B704701694A1C02610878704700B54F
:103F70008FB0CDE901310021059105497944CDE9A2
:103F8000031011466846FFF7A7FE0FB000BD000002
:103F9000E5FFFFFF007B00F080007047754600F0F2
:103FA0002BF8AE4605006946534620F007008546CB
:103FB00018B020B5FEF7E6FABDE820404FF0000645
:103FC0004FF000074FF000084FF0000B21F0070101
:103FD000AC46ACE8C009ACE8C009ACE8C009ACE844
:103FE000C0098D46704710B50446AFF300802046E7
:103FF000BDE81040FCF712B90048704730000020BF
:104000004FF0DA4210800148018070470000016DD6
:104010003A0C40D0121432801716180419021A7A7A
:1040200003033E007000710072117300A2021101BF
:104030007A207B1C7C287D3C7E557F688076818041
:104040008288838F849685A386AF87C488D789E8C2
:1040500013E7000010000D001420A505AB07247520
:10406000256326A59F78A068A103A6DFA7DFA8F097
:10407000A990AA9413E70E610F8216021E0721026F
:1040800022912907330B350B371D3871392A3C78BB
:104090004D404E20690C6B0074198D4F8E008F00BF
:1040A00090009100920096009A80B084B10CB20EFC
:1040B000B382B80A431444F0453446584728483A76
:1040C00059885A885B445C675D495E0E64046520CC
:1040D0006605940495086C0A6D556E116F9F6A40D1
:1040E0000140024013E715184F80508051005222C2
:1040F000535E5480589E41083F00750576E14C00A0
:1041000077013DC04B09C9604138564034113B022C
:10411000A48996009730982099309A849B299C0313
:104120009D4C9E3F78047901C8F0790FC800791042
:10413000C87E790AC880790BC801790CC80F790D3F
:10414000C8207909C8807902C8C07903C8407905B8
:10415000C83079260903550056403B4207081080B5
:10416000000000000000000000000000000000004F
:10417000000000183C3C3C18180018180000000013
:1041800000000066666600000000000000000000FD
:1041900000000036367F3636367F363600000000A7
:1041A0000018183C666030180C06663C18180000B1
:1041B000000070D8DA760C18306E5B1B0E00000021
:1041C000000000386C6C38606F66663B00000000D1
:1041D0000000001818180000000000000000000097
:1041E0000000000C1818303030303018180C000067
:1041F0000000003018180C0C0C0C0C1818300000C3
:104200000000000000361C7F1C360000000000008B
:10421000000000000018187E1818000000000000C0
:10422000000000000000000000001C1C0C18000032
:10423000000000000000007E000000000000000000
:10424000000000000000000000001C1C0000000036
:1042500000000006060C0C181830306060000000EA
:104260000000001E333737333B3B331E0000000095
:104270000000000C1C7C0C0C0C0C0C0C0000000052
:104280000000003C6666060C1830607E00000000EE
:104290000000003C6666061C0666663C00000000E6
:1042A0000000003030363636667F0606000000001B
:1042B0000000007E6060607C06060C780000000054
:1042C0000000001C18307C666666663C000000003A
:1042D0000000007E060C0C18183030300000000082
:1042E0000000003C6666763C6E66663C000000009E
:1042F0000000003C666666663E0C18380000000050
:1043000000000000001C1C0000001C1C000000003D
:1043100000000000001C1C0000001C1C0C18000009
:10432000000000060C18306030180C060000000079
:104330000000000000007E007E0000000000000081
:104340000000006030180C060C18306000000000FF
:104350000000003C66660C181800181800000000E9
:104360000000007EC3C3CFDBDBCFC07F00000000B6
:10437000000000183C6666667E6666660000000007
:104380000000007C6666667C6666667C0000000055
:104390000000003C666660606066663C00000000ED
:1043A000000000786C66666666666C780000000047
:1043B0000000007E6060607C6060607E0000000045
:1043C0000000007E6060607C606060600000000053
:1043D0000000003C666660606E66663E000000009D
:1043E000000000666666667E66666666000000001F
:1043F0000000003C181818181818183C000000009D
:1044000000000006060606060666663C0000000080
:1044100000000066666C6C786C6C666600000000DC
:1044200000000060606060606060607E000000000E
:104430000000006363776B6B6B63636300000000D5
:104440000000006363737B6F6763636300000000B9
:104450000000003C666666666666663C000000001A
:104460000000007C6666667C6060606000000000A2
:104470000000003C666666666666663C0C060000E8
:104480000000007C6666667C6C6666660000000064
:104490000000003C666030180C06663C000000001E
:1044A0000000007E181818181818181800000000CE
:1044B00000000066666666666666663C0000000090
:1044C000000000666666666666663C1800000000CE
:1044D0000000006363636B6B6B36363600000000D0
:1044E00000000066663418182C666666000000003E
:1044F000000000666666663C181818180000000088
:104500000000007E06060C183060607E000000008F
:104510000000003C303030303030303030303C0043
:104520000000006060303018180C0C060600000017
:104530000000003C0C0C0C0C0C0C0C0C0C0C3C008B
:1045400000183C66000000000000000000000000B1
:104550000000000000000000000000000000FF005C
:104560000000001818180000000000000000000003
:1045700000000000003C06063E66663E00000000AB
:1045800000000060607C66666666667C0000000075
:1045900000000000003C66606060663C00000000B7
:1045A00000000006063E66666666663E0000000085
:1045B00000000000003C66667E60603C0000000079
:1045C0000000001E3030307E3030303000000000FF
:1045D00000000000003E66666666663E06067C00D9
:1045E00000000060607C666666666666000000002B
:1045F00000001818007818181818187E000000001D
:1046000000000C0C003C0C0C0C0C0C0C0C0C78007E
:10461000000000606066666C786C666600000000F2
:1046200000000078181818181818187E00000000EC
:1046300000000000007E6B6B6B6B6B630000000082
:1046400000000000007C666666666666000000008A
:1046500000000000003C66666666663C00000000E4
:1046600000000000007C66666666667C6060600034
:1046700000000000003E66666666663E06060600AE
:104680000000000000666E70606060600000000066
:1046900000000000003E60603C06067C0000000058
:1046A00000000030307E30303030301E000000001E
:1046B00000000000006666666666663E0000000058
:1046C000000000000066666666663C180000000098
:1046D0000000000000636B6B6B6B3636000000005F
:1046E000000000000066663C183C666600000000A2
:1046F00000000000006666666666663C0C18F00006
:1047000000000000007E060C1830607E00000000F3
:104710000000000C1818183060301818180C000031
:104720000000001818181818181818181818180069
:10473000000000301818180C060C1818183000006B
:1047400000000071DB8E000000000000000000008F
:1047500030313233343536373839414243444546B7
:1047600040305800303132333435363738396162B1
:1047700063646566403078009847000800000020B8
:1047800030000000C0010008C847000830000020C9
:1047900060060000DC010008102700000000000097
:1047A00000000000000000000102030401020304F5
:1047B00006070809000E270700000000000000009F
:0847C0000102030406070809C9
:040000050800018569
:00000001FF
